{
  "address": "0xCf7Ed3AccA5a467e9e704C703E8D87F634fB0Fc9",
  "abi": [
    {
      "inputs": [
        {
          "internalType": "address",
          "name": "vrfCoordinatorV2",
          "type": "address"
        },
        {
          "internalType": "uint256",
          "name": "entranceFee",
          "type": "uint256"
        },
        {
          "internalType": "bytes32",
          "name": "gasLane",
          "type": "bytes32"
        },
        {
          "internalType": "uint64",
          "name": "subscriptionId",
          "type": "uint64"
        },
        {
          "internalType": "uint32",
          "name": "callbackGasLimit",
          "type": "uint32"
        },
        {
          "internalType": "uint256",
          "name": "interval",
          "type": "uint256"
        }
      ],
      "stateMutability": "nonpayable",
      "type": "constructor"
    },
    {
      "inputs": [],
      "name": "Lottery__FailedToSendPrize",
      "type": "error"
    },
    {
      "inputs": [],
      "name": "Lottery__LotteryIsClosed",
      "type": "error"
    },
    {
      "inputs": [],
      "name": "Lottery__NotEnoughETHEntered",
      "type": "error"
    },
    {
      "inputs": [
        {
          "internalType": "uint256",
          "name": "currentBalance",
          "type": "uint256"
        },
        {
          "internalType": "uint256",
          "name": "numPlayers",
          "type": "uint256"
        },
        {
          "internalType": "uint256",
          "name": "raffleState",
          "type": "uint256"
        }
      ],
      "name": "Lottery__UpkeepNeededReturnedFalse",
      "type": "error"
    },
    {
      "inputs": [
        {
          "internalType": "address",
          "name": "have",
          "type": "address"
        },
        {
          "internalType": "address",
          "name": "want",
          "type": "address"
        }
      ],
      "name": "OnlyCoordinatorCanFulfill",
      "type": "error"
    },
    {
      "anonymous": false,
      "inputs": [
        {
          "indexed": true,
          "internalType": "address",
          "name": "player",
          "type": "address"
        }
      ],
      "name": "LotteryEnter",
      "type": "event"
    },
    {
      "anonymous": false,
      "inputs": [
        {
          "indexed": true,
          "internalType": "uint256",
          "name": "requestId",
          "type": "uint256"
        }
      ],
      "name": "RequestedLotteryWinner",
      "type": "event"
    },
    {
      "anonymous": false,
      "inputs": [
        {
          "indexed": true,
          "internalType": "address",
          "name": "winner",
          "type": "address"
        }
      ],
      "name": "WinnerPicked",
      "type": "event"
    },
    {
      "inputs": [
        {
          "internalType": "bytes",
          "name": "",
          "type": "bytes"
        }
      ],
      "name": "checkUpkeep",
      "outputs": [
        {
          "internalType": "bool",
          "name": "upkeepNeeded",
          "type": "bool"
        },
        {
          "internalType": "bytes",
          "name": "",
          "type": "bytes"
        }
      ],
      "stateMutability": "view",
      "type": "function"
    },
    {
      "inputs": [],
      "name": "enterLottery",
      "outputs": [],
      "stateMutability": "payable",
      "type": "function"
    },
    {
      "inputs": [
        {
          "internalType": "uint256",
          "name": "index",
          "type": "uint256"
        }
      ],
      "name": "getAPlayer",
      "outputs": [
        {
          "internalType": "address",
          "name": "",
          "type": "address"
        }
      ],
      "stateMutability": "view",
      "type": "function"
    },
    {
      "inputs": [],
      "name": "getEntranceFee",
      "outputs": [
        {
          "internalType": "uint256",
          "name": "",
          "type": "uint256"
        }
      ],
      "stateMutability": "view",
      "type": "function"
    },
    {
      "inputs": [],
      "name": "getInterval",
      "outputs": [
        {
          "internalType": "uint256",
          "name": "",
          "type": "uint256"
        }
      ],
      "stateMutability": "view",
      "type": "function"
    },
    {
      "inputs": [],
      "name": "getLotteryState",
      "outputs": [
        {
          "internalType": "enum Lottery.LotteryState",
          "name": "",
          "type": "uint8"
        }
      ],
      "stateMutability": "view",
      "type": "function"
    },
    {
      "inputs": [],
      "name": "getNumberOfPlayers",
      "outputs": [
        {
          "internalType": "uint256",
          "name": "",
          "type": "uint256"
        }
      ],
      "stateMutability": "view",
      "type": "function"
    },
    {
      "inputs": [],
      "name": "getPlayers",
      "outputs": [
        {
          "internalType": "address payable[]",
          "name": "",
          "type": "address[]"
        }
      ],
      "stateMutability": "view",
      "type": "function"
    },
    {
      "inputs": [],
      "name": "getRecentWinner",
      "outputs": [
        {
          "internalType": "address",
          "name": "",
          "type": "address"
        }
      ],
      "stateMutability": "view",
      "type": "function"
    },
    {
      "inputs": [
        {
          "internalType": "bytes",
          "name": "",
          "type": "bytes"
        }
      ],
      "name": "performUpkeep",
      "outputs": [],
      "stateMutability": "nonpayable",
      "type": "function"
    },
    {
      "inputs": [
        {
          "internalType": "uint256",
          "name": "requestId",
          "type": "uint256"
        },
        {
          "internalType": "uint256[]",
          "name": "randomWords",
          "type": "uint256[]"
        }
      ],
      "name": "rawFulfillRandomWords",
      "outputs": [],
      "stateMutability": "nonpayable",
      "type": "function"
    },
    {
      "stateMutability": "payable",
      "type": "receive"
    }
  ],
  "transactionHash": "0x39bed13b40a01ca0c94a494f35a16b13a2b4b6ef2d15db27e613a0f1a8df8a75",
  "args": [
    "0x5FbDB2315678afecb367f032d93F642f64180aa3",
    "1000000000000000000",
    "0x79d3d8832d904592c0bf9818b621522c988bb8b0c05cdc3b15aea1b6e8db0c15",
    "1",
    "500000",
    "60"
  ],
  "numDeployments": 1,
  "solcInputHash": "a41702fa305c60a81492b6eef90dfab8",
  "bytecode": "0x6101606040523480156200001257600080fd5b50604051620018ff380380620018ff8339818101604052810190620000389190620002a9565b858073ffffffffffffffffffffffffffffffffffffffff1660808173ffffffffffffffffffffffffffffffffffffffff1681525050508460a081815250508573ffffffffffffffffffffffffffffffffffffffff1660c08173ffffffffffffffffffffffffffffffffffffffff16815250508360e081815250508267ffffffffffffffff166101008167ffffffffffffffff16815250508163ffffffff166101208163ffffffff168152505060006001811115620000fb57620000fa62000345565b5b600160146101000a81548160ff0219169083600181111562000122576200012162000345565b5b02179055504260028190555080610140818152505050505050505062000374565b600080fd5b600073ffffffffffffffffffffffffffffffffffffffff82169050919050565b6000620001758262000148565b9050919050565b620001878162000168565b81146200019357600080fd5b50565b600081519050620001a7816200017c565b92915050565b6000819050919050565b620001c281620001ad565b8114620001ce57600080fd5b50565b600081519050620001e281620001b7565b92915050565b6000819050919050565b620001fd81620001e8565b81146200020957600080fd5b50565b6000815190506200021d81620001f2565b92915050565b600067ffffffffffffffff82169050919050565b620002428162000223565b81146200024e57600080fd5b50565b600081519050620002628162000237565b92915050565b600063ffffffff82169050919050565b620002838162000268565b81146200028f57600080fd5b50565b600081519050620002a38162000278565b92915050565b60008060008060008060c08789031215620002c957620002c862000143565b5b6000620002d989828a0162000196565b9650506020620002ec89828a01620001d1565b9550506040620002ff89828a016200020c565b94505060606200031289828a0162000251565b93505060806200032589828a0162000292565b92505060a06200033889828a01620001d1565b9150509295509295509295565b7f4e487b7100000000000000000000000000000000000000000000000000000000600052602160045260246000fd5b60805160a05160c05160e05161010051610120516101405161151b620003e4600039600081816106270152610723015260006104eb015260006104c8015260006104a70152600061046b01526000818161028901526107490152600081816102af0152610303015261151b6000f3fe6080604052600436106100a05760003560e01c80636b68c03c116100645780636b68c03c146101915780636e04ff0d146101bc5780638b5b9ccc146101fa57806391ad27b414610225578063c1af578514610250578063fd6673f51461025a576100a7565b806309bc33a7146100ac5780631fe543e3146100d75780634109e9de146101005780634585e33b1461013d578063473f1ddc14610166576100a7565b366100a757005b600080fd5b3480156100b857600080fd5b506100c1610285565b6040516100ce9190610bb3565b60405180910390f35b3480156100e357600080fd5b506100fe60048036038101906100f99190610d67565b6102ad565b005b34801561010c57600080fd5b5061012760048036038101906101229190610dc3565b61036d565b6040516101349190610e31565b60405180910390f35b34801561014957600080fd5b50610164600480360381019061015f9190610ea7565b6103b4565b005b34801561017257600080fd5b5061017b6105a4565b6040516101889190610e31565b60405180910390f35b34801561019d57600080fd5b506101a66105ce565b6040516101b39190610f6b565b60405180910390f35b3480156101c857600080fd5b506101e360048036038101906101de919061103b565b6105e5565b6040516101f192919061111e565b60405180910390f35b34801561020657600080fd5b5061020f610691565b60405161021c919061121e565b60405180910390f35b34801561023157600080fd5b5061023a61071f565b6040516102479190610bb3565b60405180910390f35b610258610747565b005b34801561026657600080fd5b5061026f6108b6565b60405161027c9190610bb3565b60405180910390f35b60007f0000000000000000000000000000000000000000000000000000000000000000905090565b7f000000000000000000000000000000000000000000000000000000000000000073ffffffffffffffffffffffffffffffffffffffff163373ffffffffffffffffffffffffffffffffffffffff161461035f57337f00000000000000000000000000000000000000000000000000000000000000006040517f1cf993f4000000000000000000000000000000000000000000000000000000008152600401610356929190611240565b60405180910390fd5b61036982826108c2565b5050565b600080828154811061038257610381611269565b5b9060005260206000200160009054906101000a900473ffffffffffffffffffffffffffffffffffffffff169050919050565b60006103ce604051806020016040528060008152506105e5565b5090508061043d5747600080549050600160149054906101000a900460ff1660018111156103ff576103fe610ef4565b5b6040517f4e93bd1400000000000000000000000000000000000000000000000000000000815260040161043493929190611298565b60405180910390fd5b60018060146101000a81548160ff0219169083600181111561046257610461610ef4565b5b021790555060007f000000000000000000000000000000000000000000000000000000000000000073ffffffffffffffffffffffffffffffffffffffff16635d3b1d307f00000000000000000000000000000000000000000000000000000000000000007f000000000000000000000000000000000000000000000000000000000000000060037f000000000000000000000000000000000000000000000000000000000000000060016040518663ffffffff1660e01b815260040161052c959493929190611347565b6020604051808303816000875af115801561054b573d6000803e3d6000fd5b505050506040513d601f19601f8201168201806040525081019061056f91906113af565b9050807febf56642252004c18a776f30d528e7a0ce8c5db14b6596fb6550f630c8a24c6c60405160405180910390a250505050565b6000600160009054906101000a900473ffffffffffffffffffffffffffffffffffffffff16905090565b6000600160149054906101000a900460ff16905090565b6000606060008060018111156105fe576105fd610ef4565b5b600160149054906101000a900460ff1660018111156106205761061f610ef4565b5b14905060007f000000000000000000000000000000000000000000000000000000000000000060025442610654919061140b565b119050600080600080549050119050600080471190508380156106745750825b801561067d5750815b80156106865750805b955050505050915091565b6060600080548060200260200160405190810160405280929190818152602001828054801561071557602002820191906000526020600020905b8160009054906101000a900473ffffffffffffffffffffffffffffffffffffffff1673ffffffffffffffffffffffffffffffffffffffff16815260200190600101908083116106cb575b5050505050905090565b60007f0000000000000000000000000000000000000000000000000000000000000000905090565b7f00000000000000000000000000000000000000000000000000000000000000003410156107a1576040517fec269fd100000000000000000000000000000000000000000000000000000000815260040160405180910390fd5b600060018111156107b5576107b4610ef4565b5b600160149054906101000a900460ff1660018111156107d7576107d6610ef4565b5b1461080e576040517facafc7ee00000000000000000000000000000000000000000000000000000000815260040160405180910390fd5b6000339080600181540180825580915050600190039060005260206000200160009091909190916101000a81548173ffffffffffffffffffffffffffffffffffffffff021916908373ffffffffffffffffffffffffffffffffffffffff1602179055503373ffffffffffffffffffffffffffffffffffffffff167f1d64fb5ba9f2548c5b98468d58f25b87b9e866afee0122e92d9fe722bf85076c60405160405180910390a2565b60008080549050905090565b60008080549050826000815181106108dd576108dc611269565b5b60200260200101516108ef919061146e565b9050600080828154811061090657610905611269565b5b9060005260206000200160009054906101000a900473ffffffffffffffffffffffffffffffffffffffff16905080600160006101000a81548173ffffffffffffffffffffffffffffffffffffffff021916908373ffffffffffffffffffffffffffffffffffffffff1602179055506000600160146101000a81548160ff0219169083600181111561099a57610999610ef4565b5b0217905550600067ffffffffffffffff8111156109ba576109b9610c24565b5b6040519080825280602002602001820160405280156109e85781602001602082028036833780820191505090505b50600090805190602001906109fe929190610af3565b504260028190555060008173ffffffffffffffffffffffffffffffffffffffff1647604051610a2c906114d0565b60006040518083038185875af1925050503d8060008114610a69576040519150601f19603f3d011682016040523d82523d6000602084013e610a6e565b606091505b5050905080610aa9576040517f96980ea400000000000000000000000000000000000000000000000000000000815260040160405180910390fd5b8173ffffffffffffffffffffffffffffffffffffffff167f5b690ec4a06fe979403046eaeea5b3ce38524683c3001f662c8b5a829632f7df60405160405180910390a25050505050565b828054828255906000526020600020908101928215610b6c579160200282015b82811115610b6b5782518260006101000a81548173ffffffffffffffffffffffffffffffffffffffff021916908373ffffffffffffffffffffffffffffffffffffffff16021790555091602001919060010190610b13565b5b509050610b799190610b7d565b5090565b5b80821115610b96576000816000905550600101610b7e565b5090565b6000819050919050565b610bad81610b9a565b82525050565b6000602082019050610bc86000830184610ba4565b92915050565b6000604051905090565b600080fd5b600080fd5b610beb81610b9a565b8114610bf657600080fd5b50565b600081359050610c0881610be2565b92915050565b600080fd5b6000601f19601f8301169050919050565b7f4e487b7100000000000000000000000000000000000000000000000000000000600052604160045260246000fd5b610c5c82610c13565b810181811067ffffffffffffffff82111715610c7b57610c7a610c24565b5b80604052505050565b6000610c8e610bce565b9050610c9a8282610c53565b919050565b600067ffffffffffffffff821115610cba57610cb9610c24565b5b602082029050602081019050919050565b600080fd5b6000610ce3610cde84610c9f565b610c84565b90508083825260208201905060208402830185811115610d0657610d05610ccb565b5b835b81811015610d2f5780610d1b8882610bf9565b845260208401935050602081019050610d08565b5050509392505050565b600082601f830112610d4e57610d4d610c0e565b5b8135610d5e848260208601610cd0565b91505092915050565b60008060408385031215610d7e57610d7d610bd8565b5b6000610d8c85828601610bf9565b925050602083013567ffffffffffffffff811115610dad57610dac610bdd565b5b610db985828601610d39565b9150509250929050565b600060208284031215610dd957610dd8610bd8565b5b6000610de784828501610bf9565b91505092915050565b600073ffffffffffffffffffffffffffffffffffffffff82169050919050565b6000610e1b82610df0565b9050919050565b610e2b81610e10565b82525050565b6000602082019050610e466000830184610e22565b92915050565b600080fd5b60008083601f840112610e6757610e66610c0e565b5b8235905067ffffffffffffffff811115610e8457610e83610e4c565b5b602083019150836001820283011115610ea057610e9f610ccb565b5b9250929050565b60008060208385031215610ebe57610ebd610bd8565b5b600083013567ffffffffffffffff811115610edc57610edb610bdd565b5b610ee885828601610e51565b92509250509250929050565b7f4e487b7100000000000000000000000000000000000000000000000000000000600052602160045260246000fd5b60028110610f3457610f33610ef4565b5b50565b6000819050610f4582610f23565b919050565b6000610f5582610f37565b9050919050565b610f6581610f4a565b82525050565b6000602082019050610f806000830184610f5c565b92915050565b600080fd5b600067ffffffffffffffff821115610fa657610fa5610c24565b5b610faf82610c13565b9050602081019050919050565b82818337600083830152505050565b6000610fde610fd984610f8b565b610c84565b905082815260208101848484011115610ffa57610ff9610f86565b5b611005848285610fbc565b509392505050565b600082601f83011261102257611021610c0e565b5b8135611032848260208601610fcb565b91505092915050565b60006020828403121561105157611050610bd8565b5b600082013567ffffffffffffffff81111561106f5761106e610bdd565b5b61107b8482850161100d565b91505092915050565b60008115159050919050565b61109981611084565b82525050565b600081519050919050565b600082825260208201905092915050565b60005b838110156110d95780820151818401526020810190506110be565b60008484015250505050565b60006110f08261109f565b6110fa81856110aa565b935061110a8185602086016110bb565b61111381610c13565b840191505092915050565b60006040820190506111336000830185611090565b818103602083015261114581846110e5565b90509392505050565b600081519050919050565b600082825260208201905092915050565b6000819050602082019050919050565b600061118582610df0565b9050919050565b6111958161117a565b82525050565b60006111a7838361118c565b60208301905092915050565b6000602082019050919050565b60006111cb8261114e565b6111d58185611159565b93506111e08361116a565b8060005b838110156112115781516111f8888261119b565b9750611203836111b3565b9250506001810190506111e4565b5085935050505092915050565b6000602082019050818103600083015261123881846111c0565b905092915050565b60006040820190506112556000830185610e22565b6112626020830184610e22565b9392505050565b7f4e487b7100000000000000000000000000000000000000000000000000000000600052603260045260246000fd5b60006060820190506112ad6000830186610ba4565b6112ba6020830185610ba4565b6112c76040830184610ba4565b949350505050565b6000819050919050565b6112e2816112cf565b82525050565b600067ffffffffffffffff82169050919050565b611305816112e8565b82525050565b600061ffff82169050919050565b6113228161130b565b82525050565b600063ffffffff82169050919050565b61134181611328565b82525050565b600060a08201905061135c60008301886112d9565b61136960208301876112fc565b6113766040830186611319565b6113836060830185611338565b6113906080830184611338565b9695505050505050565b6000815190506113a981610be2565b92915050565b6000602082840312156113c5576113c4610bd8565b5b60006113d38482850161139a565b91505092915050565b7f4e487b7100000000000000000000000000000000000000000000000000000000600052601160045260246000fd5b600061141682610b9a565b915061142183610b9a565b9250828203905081811115611439576114386113dc565b5b92915050565b7f4e487b7100000000000000000000000000000000000000000000000000000000600052601260045260246000fd5b600061147982610b9a565b915061148483610b9a565b9250826114945761149361143f565b5b828206905092915050565b600081905092915050565b50565b60006114ba60008361149f565b91506114c5826114aa565b600082019050919050565b60006114db826114ad565b915081905091905056fea2646970667358221220fda24073087ea94cb50b4f43d4a51b1df335c52957ea6c7871be50fa20df920c64736f6c63430008110033",
  "devdoc": {
    "kind": "dev",
    "methods": {
      "checkUpkeep(bytes)": {
        "details": "This is the function that the chainlink keeper nodes call they look for the upkeepneeded to return true. The following should be true in order to return true: 1. Our time interval should have passed. 2. The lottery should have at least 1 player and some eth 3. Our subscription is funded with LINK 4. The lottery should be in an Open state."
      }
    },
    "version": 1
  },
  "userdoc": {
    "kind": "user",
    "methods": {},
    "version": 1
  },
  "storageLayout": {
    "storage": [
      {
        "astId": 243,
        "contract": "contracts/Lottery.sol:Lottery",
        "label": "s_players",
        "offset": 0,
        "slot": "0",
        "type": "t_array(t_address_payable)dyn_storage"
      },
      {
        "astId": 260,
        "contract": "contracts/Lottery.sol:Lottery",
        "label": "s_recentWinner",
        "offset": 0,
        "slot": "1",
        "type": "t_address"
      },
      {
        "astId": 263,
        "contract": "contracts/Lottery.sol:Lottery",
        "label": "s_lotteryState",
        "offset": 20,
        "slot": "1",
        "type": "t_enum(LotteryState)238"
      },
      {
        "astId": 265,
        "contract": "contracts/Lottery.sol:Lottery",
        "label": "s_lastTimeStamp",
        "offset": 0,
        "slot": "2",
        "type": "t_uint256"
      }
    ],
    "types": {
      "t_address": {
        "encoding": "inplace",
        "label": "address",
        "numberOfBytes": "20"
      },
      "t_address_payable": {
        "encoding": "inplace",
        "label": "address payable",
        "numberOfBytes": "20"
      },
      "t_array(t_address_payable)dyn_storage": {
        "base": "t_address_payable",
        "encoding": "dynamic_array",
        "label": "address payable[]",
        "numberOfBytes": "32"
      },
      "t_enum(LotteryState)238": {
        "encoding": "inplace",
        "label": "enum Lottery.LotteryState",
        "numberOfBytes": "1"
      },
      "t_uint256": {
        "encoding": "inplace",
        "label": "uint256",
        "numberOfBytes": "32"
      }
    }
  }
}