{
  "address": "0xA7503969E134e62Ea1808927b01f27A79b3F5876",
  "abi": [
    {
      "inputs": [
        {
          "internalType": "uint256",
          "name": "",
          "type": "uint256"
        }
      ],
      "name": "customers",
      "outputs": [
        {
          "internalType": "address",
          "name": "",
          "type": "address"
        }
      ],
      "stateMutability": "view",
      "type": "function"
    },
    {
      "inputs": [],
      "name": "getCustomers",
      "outputs": [
        {
          "internalType": "address[]",
          "name": "",
          "type": "address[]"
        }
      ],
      "stateMutability": "view",
      "type": "function"
    },
    {
      "inputs": [],
      "name": "pay",
      "outputs": [],
      "stateMutability": "payable",
      "type": "function"
    }
  ],
  "transactionHash": "0xa8a1ca3a2fea30476ece7c46b2211f7c9be46bf161f7272ee87327fdcd5e2983",
  "args": [],
  "numDeployments": 1,
  "solcInputHash": "671a447cb01ea916e0aeb6f0e7322573",
  "bytecode": "0x608060405234801561001057600080fd5b506103b7806100206000396000f3fe6080604052600436106100345760003560e01c80631b9265b814610039578063c0abda2a14610043578063f1ba712714610080575b600080fd5b6100416100ab565b005b34801561004f57600080fd5b5061006a60048036038101906100659190610218565b610110565b6040516100779190610286565b60405180910390f35b34801561008c57600080fd5b5061009561014f565b6040516100a2919061035f565b60405180910390f35b6000339080600181540180825580915050600190039060005260206000200160009091909190916101000a81548173ffffffffffffffffffffffffffffffffffffffff021916908373ffffffffffffffffffffffffffffffffffffffff160217905550565b6000818154811061012057600080fd5b906000526020600020016000915054906101000a900473ffffffffffffffffffffffffffffffffffffffff1681565b606060008054806020026020016040519081016040528092919081815260200182805480156101d357602002820191906000526020600020905b8160009054906101000a900473ffffffffffffffffffffffffffffffffffffffff1673ffffffffffffffffffffffffffffffffffffffff1681526020019060010190808311610189575b5050505050905090565b600080fd5b6000819050919050565b6101f5816101e2565b811461020057600080fd5b50565b600081359050610212816101ec565b92915050565b60006020828403121561022e5761022d6101dd565b5b600061023c84828501610203565b91505092915050565b600073ffffffffffffffffffffffffffffffffffffffff82169050919050565b600061027082610245565b9050919050565b61028081610265565b82525050565b600060208201905061029b6000830184610277565b92915050565b600081519050919050565b600082825260208201905092915050565b6000819050602082019050919050565b6102d681610265565b82525050565b60006102e883836102cd565b60208301905092915050565b6000602082019050919050565b600061030c826102a1565b61031681856102ac565b9350610321836102bd565b8060005b8381101561035257815161033988826102dc565b9750610344836102f4565b925050600181019050610325565b5085935050505092915050565b600060208201905081810360008301526103798184610301565b90509291505056fea2646970667358221220117ae7779e2370911369a5dcdbabb3bb7e74cbad765410059062ce14ec1dab9764736f6c63430008110033",
  "devdoc": {
    "kind": "dev",
    "methods": {},
    "version": 1
  },
  "userdoc": {
    "kind": "user",
    "methods": {},
    "version": 1
  },
  "storageLayout": {
    "storage": [
      {
        "astId": 4,
        "contract": "contracts/ArrayTest.sol:ArrayTest",
        "label": "customers",
        "offset": 0,
        "slot": "0",
        "type": "t_array(t_address)dyn_storage"
      }
    ],
    "types": {
      "t_address": {
        "encoding": "inplace",
        "label": "address",
        "numberOfBytes": "20"
      },
      "t_array(t_address)dyn_storage": {
        "base": "t_address",
        "encoding": "dynamic_array",
        "label": "address[]",
        "numberOfBytes": "32"
      }
    }
  }
}